:020000040800F2
:1000000080FC0120B9900C08458F0C08478F0C0824
:10001000498F0C084B8F0C084D8F0C080000000016
:10002000000000000000000000000000D50D0708DF
:100030004F8F0C0800000000830D0708558F0C0837
:1000400009910C080D910C0811910C0815910C08E0
:1000500019910C081D910C0821910C0825910C0890
:1000600029910C082D910C0831910C0835910C0840
:1000700039910C083D910C0841910C08E78A0C0855
:1000800049910C084D910C0851910C0855910C08A0
:1000900059910C085D910C0861910C0865910C0850
:1000A00069910C086D910C0871910C0875910C0800
:1000B0006F8F0C08BF7C0C0881910C0885910C088F
:1000C00089910C088D910C0891910C0895910C0860
:1000D00099910C089D910C08A1910C08A5910C0810
:1000E00081CA0A08BD280708B1910C08B5910C080F
:1000F000B9910C08BD910C08C1910C08C5910C0870
:10010000C9910C088B8F0C08D1910C08D5910C0863
:10011000D9910C08DD910C08E1910C08E5910C08CF
:10012000E9910C08938F0C08F1910C088F8F0C0843
:10013000F9910C0813CA0A0801920C0805920C08E0
:1001400009920C080D920C0811920C08738F0C0880
:1001500019920C081D920C0821920C0825920C088B
:1001600029920C082D920C08858F0C087F8F0C08A3
:1001700039920C08798F0C0841920C0845920C08B2
:1001800049920C0853657269616C00002043616EEE
:1001900063656C2000000000436F6E74696E7565C6
:1001A0000000000053657269616C205465726D69CE
:1001B0006E616C203A207761726E696E6700000094
:1001C0005468652053657269616C206D6F64756C4D
:1001D0006520736861726520736F6D6520482F57C5
:1001E000207265736F757263657300007769746858
:1001F0002074686520534420636172642C206C6114
:10020000756E6368696E6720746865207465726DC9
:10021000696E616C0000000077696C6C20636C6F24
:10022000736520616C6C20746865202070726F6348
:100230006573736573207573696E672074686520D4
:1002400053440000636172642C20646F20796F75E1
:100250002077616E7420746F20636F6E74696E75A1
:100260006520616E797761793F000000536572699E
:10027000616C205465726D696E616C0053657474B5
:10028000696E67730000000052657475726E00003D
:100290002052657475726E2000000000536572690B
:1002A000616C2053657474696E6773204D656E755B
:1002B00000000000426974732070657220736563EA
:1002C0006F6E643A000000003438303000000000E7
:1002D0003936303000000000313932303000000053
:1002E000333834303000000035373630300000000D
:1002F00031313532303000005061726974793A0022
:100300004576656E0000000053746F70206269745A
:10031000733A0000466C6F7720636F6E74726F6C77
:100320003A0000004E6F6E65000000005254532FDB
:100330004354530020202020202020202020202053
:10034000202020202020202020202020200000000D
:10035000424DBE13000000000000360000002800DF
:100360000000320000003200000001001000030015
:1003700000008813000000000000000000000000E2
:10038000000000000000FFFFFFFFBEF7DBDE18C625
:1003900055AD76B5D8C5DBDE7EF7FFFFFFFFFFFF6B
:1003A000FFFFFFFFFFFFFFFFFFFFFFFFFFFFFFFF5D
:1003B000FFFFFFFFFFFFFFFFFFFFFFFFFFFFFFFF4D
:1003C000FFFFFFFFFFFFFFFFFFFFFFFFFFFFFFFF3D
:1003D000FFFFFFFFFFFFFFFFDFFFBFFF7EF79EF77F
:1003E000BFFFFFFFFFFFFFFFFFFFFFFFBFFF9AD62B
:1003F00035ADD39C35ADF39C9294F39C59CE5DEF13
:10040000FFFFFFFFFFFFFFFFFFFFFFFFFFFFFFFFFC
:10041000FFFFFFFFFFFFFFFFFFFFFFFFFFFFFFFFEC
:10042000FFFFFFFFFFFFFFFFFFFFFFFFFFFFFFFFDC
:10043000FFFFFFFFFFFFFFFFFFFFBEF75DEF59CE9E
:10044000D7BDD7BDBBDE5DEFFFFFFFFFFFFFFFFFA7
:100450001CE796B555ADB7BD55AD75ADF39CD39CB6
:10046000B29439CE5DEFFFFFFFFFFFFFFFFFFFFFFD
:10047000FFFFFFFFFFFFFFFFFFFFFFFFFFFFFFFF8C
:10048000FFFFFFFFFFFFFFFFFFFFFFFFFFFFFFFF7C
:10049000FFFFFFFFFFFFFFFFFFFFFFFFBFFF3DEF7E
:1004A000D6B56F9CC79B2AA4B19C18C63DEFFFFF31
:1004B000FFFFBEF77AD655AD96B5F7BDFBDEFBDE86
:1004C00039CE55ADD4A4B29439CE5DEFFFFFFFFF16
:1004D000FFFFFFFFFFFFFFFFFFFFFFFFFFFFFFFF2C
:1004E000FFFFFFFFFFFFFFFFFFFFFFFFFFFFFFFF1C
:1004F000FFFFFFFFFFFFFFFFFFFFFFFFFFFFBEF755
:100500003CE796B50C9CC1B380DCC0DC82D46CA403
:10051000F8C55CE7FFFF9EF7F7BDD7BDF8C5BAD6B3
:100520009EF7DFFFDCE6D7BDB6B535ADB29479CE28
:100530007EF7FFFFFFFFFFFFFFFFFFFFFFFFFFFF54
:10054000FFFFFFFFFFFFFFFFFFFFFFFFFFFFFFFFBB
:10055000FFFFFFFFFFFFFFFFFFFFFFFFFFFFFFFFAB
:10056000BFFF1CE796B50C9CE1B3A0E5A0EDE0F55C
:10057000E0F541EDCDAC9AD69FFF7DEFD7BD18C613
:10058000F8C5DBDEFFFFFFFF5DEF96B539CE38C65D
:1005900015ADD39C9AD67DEFFFFFFFFFFFFFFFFF56
:1005A000FFFFFFFFFFFFFFFFFFFFFFFFFFFFFFFF5B
:1005B000FFFFFFFFFFFFFFFFFFFFFFFFFFFFFFFF4B
:1005C000FFFFBEF71CE775ADCA9BE1BBC0EDE0EDD8
:1005D00020E540EE00FF41F622E573B55DEF9EF7A2
:1005E000F8C5BAD675AD9AD69EF7BFFFBAD635AD67
:1005F000F8C5D7BD38C614A5F39CBBDE9FFFFFFF2F
:10060000FFFFFFFFFFFFFFFFFFFFFFFFFFFFFFFFFA
:10061000FFFFFFFFFFFFFFFFFFFFFFFFFFFFFFFFEA
:10062000FFFFFFFFBFFFFCE675ADEB9B01BCE0EDFC
:10063000E0ED40E5A0ED21FFE3FE41F660FD4DCD8C
:10064000FCE6BEF7BBDEFBDE35AD34A579CE79CE58
:1006500096B5308438C66D6B96B518C6D39C14A574
:10066000DBDEBEF7FFFFFFFFFFFFFFFFFFFFFFFF28
:10067000FFFFFFFFFFFFFFFFFFFFFFFFFFFFFFFF8A
:10068000FFFFFFFFFFFFBEF7FBDE55ADC99B00BCC0
:10069000E0EDE0E520E5C0E521FFE4F682FE60EE56
:1006A00060ED68E55DEFFFFF5DEF9AD65AD6518C9D
:1006B0003084518CAE7376B514A5A210E739B7BD5E
:1006C000F7BDB39C54A5FCE6BFFFFFFFFFFFFFFF94
:1006D000FFFFFFFFFFFFFFFFFFFFFFFFFFFFFFFF2A
:1006E000FFFFFFFFFFFFFFFF9FFFDBDE34A5E89B5F
:1006F00020C400EEC0ED40E5E0ED42FF06FFA2FEA3
:10070000A0FEE0EDC0DCF0DD9FFFFFFFDFFFDAD6EB
:1007100079CE79CEF4A4918C59CE38C62842A21055
:100720002108494AD7BDD7BD729475AD3CE7BEF7E5
:10073000FFFFFFFFFFFFFFFFFFFFFFFFFFFFFFFFC9
:10074000FFFFFFFFFFFFFFFFFFFF9EF7DBDE34A58C
:10075000A89B40C400EEC0E520E5E0ED43FF08F7AC
:10076000A3FEA0F6E0E580CC6CD55CEFFFFFFFFFB9
:10077000FFFFDFFF9AD659CE7EF79AD6B294094A88
:10078000A6314529C31841088A52F8C596B59294F6
:10079000B6B55DEFDFFFFFFFFFFFFFFFFFFFFFFFCE
:1007A000FFFFFFFFFFFFFFFFFFFFFFFFBFFFDBDEDE
:1007B00013A5C79B60C420F6C0ED20E500F644FFFA
:1007C00009FFA3FEA0FEC0E560CC6ED55DF7FFFF7C
:1007D000FFFFFFFFFFFFFFFFDFFF9AD659CE3CE789
:1007E000F4A4E739484AE7394529C3184108EB5AC8
:1007F000F8C555AD7294F7BD7DEFDFFFFFFFFFFF3A
:10080000FFFFFFFFFFFFFFFFFFFFFFFFFFFFDFFF18
:100810005DEF75B5A6A320C4A0EDA0E500E520EE30
:1008200045FF2BF7A3FEA0F6C0E561C48FD57DEF91
:10083000FFFFFFFFFFFFFFFFFFFFFFFFFFFFDFFFE8
:100840009AD618C63DEF55ADE7414952E7394529DB
:10085000C31841084D6BF8C514A5B39C39CE9EF75B
:10086000DFFFFFFFFFFFFFFFFFFFFFFFFFFFFFFFB8
:10087000FFFFBFFF7AD64BAC20C420E5A0EDA0ED72
:1008800040F667FF2DFFA3FEA0FEA0E561CC90D54A
:100890007EF7FFFFFFFFFFFFFFFFFFFFFFFFFFFFF1
:1008A000FFFFFFFFDFFFDAD618C63CE796B5084228
:1008B0004842073A6529C3186210AE73F8C5D39C45
:1008C000B39C79CE9EF7FFFFFFFFFFFFFFFFFFFF07
:1008D000FFFFFFFFDFFFFBDE75B523B420E5A0E5DA
:1008E00060F6C0F667FF2EF7A3FE80F680E561C4D0
:1008F000D2D59DEFFFFFFFFFFFFFFFFFFFFFFFFFD1
:10090000FFFFFFFFFFFFFFFFFFFFDFFFFCE6F8C574
:100910001DEFB7BD2842494A073A6529C31882101E
:100920003084D7BDB29414A59BDEBFFFFFFFFFFF4D
:10093000FFFFFFFFDFFFBEF7FCE6B7BD0B94E0D47F
:10094000E0ED80FEE1FE6AFF2FFF63F680FE80E5AA
:1009500061CCF3D59EF7FFFFFFFFFFFFFFFFFFFF17
:10096000FFFFFFFFFFFFFFFFFFFFFFFFFFFFFFFF97
:10097000FFFFFBDEF7BD1CE7D7BD494A284207420F
:100980006529C318C318B294D7BD718C35ADDAD6BA
:10099000DFFFFFFFFFFF9DEF1CE738C635ADEC8B97
:1009A00041C480E580F600FF68FF51F743F660E53B
:1009B00060E562C414DE9DF7FFFFFFFFFFFFFFFF4E
:1009C000FFFFFFFFFFFFFFFFFFFFFFFFFFFFFFFF37
:1009D000FFFFFFFFFFFFFFFF1DEFF7BDFCE618C69F
:1009E000894A294A07426529C318E420F39C96B531
:1009F000718C76B5FCE6BFFF5EF77AD613A50F8C37
:100A0000878B61C480E560F6E0FE40FF01FF2CFFAC
:100A100082ED00E582DC55DE9FFFFFFFFFFFFFFF59
:100A2000FFFFFFFFFFFFFFFFFFFFFFFFFFFFFFFFD6
:100A3000FFFFFFFFFFFFFFFFFFFFFFFFFFFF3CE7A1
:100A4000F8C5FBDE38C6AA52284208426529C318F9
:100A5000252955AD75AD518CB7BDDAD67AD6B19C86
:100A6000A4AB01BCA0DC80E560F6E0F620FFE0F678
:100A700000FF23FFCAFEA3D476E6BEF7FFFFFFFF09
:100A8000FFFFFFFFFFFFFFFFFFFFFFFFFFFFFFFF76
:100A9000FFFFFFFFFFFFFFFFFFFFFFFFFFFFFFFF66
:100AA000FFFFFFFF5DEFF8C5DBDE59CECB5A294AC9
:100AB00008426529E318873975AD35AD518C96B577
:100AC00032B5E3B380CC40ED60F5E0FD60FE00FFA1
:100AD00060F620F620F686EEAEEE19EFBFFFFFFFC0
:100AE000FFFFFFFFFFFFFFFFFFFFFFFFFFFFFFFF16
:100AF000FFFFFFFFFFFFFFFFFFFFFFFFFFFFFFFF06
:100B0000FFFFFFFFFFFFFFFFFFFF7DEFF8C5BAD636
:100B10007AD60C63084208428531C3180842B6B53C
:100B2000D4A4518C6CACA0D460E5E0E500FEA0FD3F
:100B300000FE60F600EE61E5EEDD3BE7FFFFFFFF44
:100B4000FFFFFFFFFFFFFFFFFFFFFFFFFFFFFFFFB5
:100B5000FFFFFFFFFFFFFFFFFFFFFFFFFFFFFFFFA5
:100B6000FFFFFFFFFFFFFFFFFFFFFFFFFFFFFFFF95
:100B70007EF718C69BDE9AD62D6B084A284285312F
:100B8000E3188B5AB6B572948D7328A4C0F580F61D
:100B9000E0FE20FE40FDC0F540E5D0D57EF7FFFF2A
:100BA000FFFFFFFFFFFFFFFFFFFFFFFFFFFFFFFF55
:100BB000FFFFFFFFFFFFFFFFFFFFFFFFFFFFFFFF45
:100BC000FFFFFFFFFFFFFFFFFFFFFFFFFFFFFFFF35
:100BD000FFFFFFFFFFFF9DEF38C679CEBBDE8D73B1
:100BE000074228428631C318EB5A918CAA52518C85
:100BF000F0FEE3FE22FFA7F6C4FD20E527D5FBDECD
:100C0000FFFFFFFFFFFFFFFFFFFFFFFFFFFFFFFFF4
:100C1000FFFFFFFFFFFFFFFFFFFFFFFFFFFFFFFFE4
:100C2000FFFFFFFFFFFFFFFFFFFFFFFFFFFFFFFFD4
:100C3000FFFFFFFFFFFFFFFFFFFFFFFF9EF759CE04
:100C40005AD6DBDEAE73E84128426529A318294A4B
:100C5000B294BFF71CE70FDE51FF11FFC6EDE0E4D1
:100C6000B1D5BEF7FFFFFFFFFFFFFFFFFFFFFFFF55
:100C7000FFFFFFFFFFFFFFFFFFFFFFFFFFFFFFFF84
:100C8000FFFFFFFFFFFFFFFFFFFFFFFFFFFFFFFF74
:100C9000FFFFFFFFFFFFFFFFFFFFFFFFFFFFFFFF64
:100CA000FFFF9EF77AD638C6FBDEEF7BC739A63149
:100CB00004213184DFFFFBDE35ADB6B557D6D2F661
:100CC000E2E4C7CC3CEFDEFFFFFFFFFFFFFFFFFFCB
:100CD000FFFFFFFFFFFFFFFFFFFFFFFFFFFFFFFF24
:100CE000FFFFFFFFFFFFFFFFFFFFFFFFFFFFFFFF14
:100CF000FFFFFFFFFFFFFFFFFFFFFFFFFFFFFFFF04
:100D0000FFFFFFFFFFFFFFFFBFFF9AD6F8C57AD6B0
:100D10004D6B4631D394DFFFFCE676B596B5CF7BBD
:100D2000B29475E611E63CEFDFFFFFFFFFFFFFFF28
:100D3000FFFFFFFFFFFFFFFFFFFFFFFFFFFFFFFFC3
:100D4000FFFFFFFFFFFFFFFFFFFFFFFFFFFFFFFFB3
:100D5000FFFFFFFFFFFFFFFFFFFFFFFFFFFFFFFFA3
:100D6000FFFFFFFFFFFFFFFFFFFFFFFFFFFF9DEF05
:100D700039CEB294CF7B34A5DFFFFBDEB7B555ADDE
:100D800052949294108454ADDBDE9EF7FFFFFFFF78
:100D9000FFFFFFFFFFFFFFFFFFFFFFFFFFFFFFFF63
:100DA000FFFFFFFFFFFFFFFFFFFFFFFFFFFFFFFF53
:100DB000FFFFFFFFFFFFFFFFFFFFFFFFFFFFFFFF43
:100DC000FFFFFFFFFFFFFFFFFFFFFFFFFFFFFFFF33
:100DD000DFFF5DEFD7BDF08396B5DFFFDCE6D7BD63
:100DE00055AD08428631B7BDB294318C75AD1CE764
:100DF0009FFFFFFFFFFFFFFFFFFFFFFFFFFFFFFF63
:100E0000FFFFFFFFFFFFFFFFFFFFFFFFFFFFFFFFF2
:100E1000FFFFFFFFFFFFFFFFFFFFFFFFFFFFFFFFE2
:100E2000FFFFFFFFFFFFFFFFFFFFFFFFFFFFFFFFD2
:100E3000FFFFDEF75DEFF7BD518CF7BDDFFFDBD6BF
:100E400018C696B5494A08428631494AF8C5718C98
:100E5000108434A59AD61CE79EF7BEF7FFFFDFFF8C
:100E6000FFFFFFFFFFFFFFFFFFFFFFFFFFFFFFFF92
:100E7000FFFFFFFFFFFFFFFFFFFFFFFFFFFFFFFF82
:100E8000FFFFFFFFFFFFFFFFFFFFFFFFFFFFFFFF72
:100E9000FFFFFFFFDFFF5DEFD7BD729419CEDFFFCD
:100EA000DCD639CE75AD76B555AD094A28428631C6
:100EB0000C63B7BD518CCF7B518C55ADF8C59AD61C
:100EC000DCE65DEF7EF7BFFFDFFFFFFFFFFFFFFF09
:100ED000FFFFFFFFFFFFFFFFFFFFFFFFFFFFFFFF22
:100EE000FFFFFFFFFFFFFFFFFFFFFFFFFFFFFFFF12
:100EF000FFFFFFFFFFFFDEF73DEFD6B5518C38C691
:100F0000DFFFDBD67AD676ADB7BD75ADFBDE38C672
:100F1000694A0842652914A5D4A4518CAE738E7316
:100F2000AF7B3084B39C54A5D7BD38C6BBDE1BDF76
:100F30009EF7DEF7FFFFFFFFFFFFFFFFFFFFFFFF53
:100F4000FFFFFFFFFFFFFFFFFFFFFFFFFFFFFFFFB1
:100F5000FFFFFFFFFFFFFFFFBFFF3CE7B6B5729447
:100F60005ACEBFF7DCE69AD696B57AD67EF75DEF15
:100F7000B6B5FBDE99CE2D6B694AD7BDD294D39C12
:100F8000EF7B72941084CF7B8E736E738E73F083BD
:100F9000718C35AD18C63DEFBFFFFFFFFFFFFFFFB0
:100FA000FFFFFFFFFFFFFFFFFFFFFFFFFFFFFFFF51
:100FB000FFFFFFFFFFFFFFFFFFFFBEF71CE796B538
:100FC000518479CE9EF7DBDEDBDE75AD9AD6BEF7B7
:100FD000FFFFDEF75DEFD7BDFBDE1CE75DEF5CE7F3
:100FE00015ADAE7345290C63107CB294318C8E73B1
:100FF0006D6B4D6B2C6B2C63EF7B96B51CE7BEF7CE
:10100000FFFFFFFFFFFFFFFFFFFFFFFFFFFFFFFFF0
:10101000FFFFFFFFFFFFFFFFFFFFFFFFBFFF1CE71B
:1010200075AD528C7AD67EF7FCE6FBDE55ADBBDEA5
:10103000BFFFFFFFFFFFFFFFDFFF7DEFB6B5FBDE6A
:101040007EF7FFFF5EF70842AA5259CE54A5AF7B48
:101050008E7376B5EF7BCF7B6D6B8E738E73CF7B8C
:10106000B6B55DEFDFFFFFFFFFFFFFFFFFFFFFFFF5
:10107000FFFFFFFFFFFFFFFFFFFFFFFFFFFFBEF7C9
:101080001CE775AD518C79CE7DEF1BDF1CE755A5B4
:10109000DBDEBEF7FFFFFFFFFFFFFFFFFFFFDEF717
:1010A0003CE796B5BADE7DEFDBDE4529F4A499CEA8
:1010B000D7BD083A4D6B95ADB39C518C1084B2945A
:1010C00014ADAE73108438C69EF7FFFFFFFFFFFF1D
:1010D000FFFFFFFFFFFFFFFFFFFFFFFFFFFFFFFF20
:1010E000BFFFFBDE55AD72949BD65DEF1DE71CE79D
:1010F00055ADFCE6BFFFFFFFFFFFFFFFFFFFFFFF58
:10110000FFFFFFFF9FFF39CE96B5DBDE1084294A33
:10111000D6B5BADE918C663196B5B7BD54A514A587
:10112000139D96B596B5D39C8E7314A5DCE6FFFF90
:10113000FFFFFFFFFFFFFFFFFFFFFFFFFFFFFFFFBF
:10114000FFFF9EF7FBDE34A5718C9ACE3DE73CE7AE
:101150003CE755A51CE7DEF7FFFFFFFFFFFFFFFFA2
:10116000FFFFFFFFFFFFFFFFFFFFFBDE76B596B53A
:10117000718CCE7318C617BEEB5A494A9AD617C659
:1011800018C695B575AD75AD59CE34A55294EF7BA3
:1011900039CE9DEFFFFFFFFFFFFFFFFFFFFFFFFFC8
:1011A000FFFFFFFF9FFFDBDE34A592947AD63CE77A
:1011B0005DEF3DEF34A51CE7DFFFFFFFFFFFFFFF03
:1011C000FFFFFFFFFFFFFFFFFFFFFFFFFFFF7EF7B8
:1011D00096B555AD5AD6BBDE96B5518CC73155ADD7
:1011E00079CE7AD659CEF7BD14A576B5DBDEF7BD3C
:1011F000D39C108454A55DEFFFFFFFFFFFFFFFFFAF
:10120000FFFFFFFFFFFF9DEFBBDE14A5718C79CEC2
:101210001CE77DEF3DEF34A55DEFDEF7FFFFFFFF3D
:10122000FFFFFFFFFFFFFFFFFFFFFFFFFFFFFFFFCE
:10123000FFFF9EF759CE34A5B7BD79CE1CE73CE73A
:101240009AD6DAD6BBDE99CE9AD655ADF4A414A5BB
:10125000FCE679CE96B5718CB39C1BDFFFFFFFFFD8
:10126000FFFFFFFFFFFFFFFF7EF7BAD6F39CB39CA3
:1012700059CE1CE77EF73CE755AD3DEFDFFFFFFFA2
:10128000FFFFFFFFFFFFFFFFFFFFFFFFFFFFFFFF6E
:10129000FFFFFFFFFFFFFFFFDBDE14A595AD38C6A4
:1012A0007AD61CE7FCE61CE7DBDEDBDE59CEF3A4D6
:1012B000D6B55DEFFCE679D6B6B535ADB2945DEF47
:1012C000DFFFFFFFFFFFFFFFDFFF3CE759CEB294D8
:1012D000939C38C61CE79DEF1CE755A55DEFDFFF2B
:1012E000FFFFFFFFFFFFFFFFFFFFFFFFFFFFFFFF0E
:1012F000FFFFFFFFFFFFFFFFFFFFFFFF7DEF14A5D5
:10130000B7BDD6B559CE1BDF3DEF1BDF3CE7FBDE9B
:10131000F7C518C6BEF7DFFFFFFFBEF75DEF58C683
:10132000B7BDBEF7FFFFFFFFDFFF9EF7BBDEB7BD18
:1013300010847294F8C5FCE69EF7FCDE55AD7DEF97
:10134000DFFFFFFFFFFFFFFFFFFFFFFFFFFFFFFFCD
:10135000FFFFFFFFFFFFFFFFFFFFFFFFFFFFFFFF9D
:101360007EF7B7BD75AD59CE79CE7DEF5DEF7DEFE0
:101370003DEF3CE759CEBEF7FFFFFFFFFFFFFFFF4A
:10138000FFFFFFFFDFFFFFFFFFFFFFFF9EF759CECD
:10139000F4A41084B39C38C61CE79EF7DBDE75AD61
:1013A0007EF7DFFFFFFFFFFFFFFFFFFFFFFFFFFFF6
:1013B000FFFFFFFFFFFFFFFFFFFFFFFFFFFFFFFF3D
:1013C000FFFFFFFFDFFF18C6F4A4DAD65DEF7DEF65
:1013D0009EF77DEF9EF7BAD6BAD6BEF7FFFFFFFFA6
:1013E000FFFFFFFFFFFFFFFFFFFFFFFFFFFFDFFF2D
:1013F0009BDE34ADD7BD9AD6D8C5D7BD7EF77AD699
:1014000054A59EF7DFFFFFFFFFFFFFFFFFFFFFFF7A
:10141000FFFFFFFFFFFFFFFFFFFFFFFFFFFFFFFFDC
:10142000FFFFFFFFFFFFFFFFDFFFDBDEB2941CE7E4
:101430005DEF9EF79FFFDFFF9FFFFBDE38C69EF745
:10144000DFFFFFFFFFFFFFFFFFFFFFFFFFFFFFFFCC
:10145000FFFF3CE796B518C65DEFFBDE7AD6B6B562
:10146000F8BD92947DEFDFFFFFFFFFFFFFFFFFFF5F
:10147000FFFFFFFFFFFFFFFFFFFFFFFFFFFFFFFF7C
:10148000FFFFFFFFFFFFFFFFFFFFFFFFFFFF1CE767
:10149000D4A499CE7DEF7DEFDFFFDEF7FFFFBAD654
:1014A000D4A418C6FCE65DEFDFFFDFFFFFFFFFFF00
:1014B000FFFFFFFFFFFFDBDE55ADBFF75DEF5DEF29
:1014C000FCE6BAD6928C1CE7DFFFFFFFFFFFFFFFB1
:1014D000FFFFFFFFFFFFFFFFFFFFFFFFFFFFFFFF1C
:1014E000FFFFFFFFFFFFFFFFFFFFFFFFFFFFFFFF0C
:1014F000FFFF9EF775AD18C65DEF9EF79FFFFFFFDC
:10150000DFFF1CE7AE731084D294D7BD9BDE7EF75D
:10151000DFFFFFFFFFFFFFFFFFFF99CE1CE7DEF7B6
:10152000BFFF5CE75DEF9ACE9AD6BEF7FFFFFFFFE5
:10153000FFFFFFFFFFFFFFFFFFFFFFFFFFFFFFFFBB
:10154000FFFFFFFFFFFFFFFFFFFFFFFFFFFFFFFFAB
:10155000FFFFFFFFFFFFBEF79AD634A53CEF5CE725
:101560009EF79EF7DFFF9EF79AD6D39CAE738E73DD
:10157000D4A499CEDFFFFFFFFFFFFFFFFFFF7EF741
:1015800059CEDFFFDFFFDFFF1CE79AD69FFFFFFF8B
:10159000FFFFFFFFFFFFFFFFFFFFFFFFFFFFFFFF5B
:1015A000FFFFFFFFFFFFFFFFFFFFFFFFFFFFFFFF4B
:1015B000FFFFFFFFFFFFFFFFFFFFFFFF7EF7B7BD4E
:1015C00019CE5DEF5DEF9EF77EF7BEF79EF7BEF793
:1015D0003DEFF8C5518CB7BDBFFFFFFFFFFFFFFF19
:1015E000FFFFDFFF7DEF59CE9EF79AD6FBDEBEF7F9
:1015F000FFFFFFFFFFFFFFFFFFFFFFFFFFFFFFFFFB
:10160000FFFFFFFFFFFFFFFFFFFFFFFFFFFFFFFFEA
:10161000FFFFFFFFFFFFFFFFFFFFFFFFFFFFFFFFDA
:10162000FFFF3CE7B7BD38C63CE73CE77DEF5CE732
:101630007DEF5CE75DEF5CEF5DEF1CE7FFFFFFFF19
:10164000FFFFFFFFFFFFFFFFFFFF9EF7BBDEBFFFB8
:10165000DFFFFFFFFFFFFFFFFFFFFFFFFFFFFFFFBA
:10166000FFFFFFFFFFFFFFFFFFFFFFFFFFFFFFFF8A
:10167000FFFFFFFFFFFFFFFFFFFFFFFFFFFFFFFF7A
:10168000FFFFFFFFFFFFFFFF7EF759CEF8C5BBDE70
:10169000FCE63DEF3DEF5DEFFCE61CE75DEFFFFF95
:1016A000FFFFFFFFFFFFFFFFFFFFFFFFFFFFFFFF4A
:1016B000FFFFFFFFFFFFFFFFFFFFFFFFFFFFFFFF3A
:1016C000FFFFFFFFFFFFFFFFFFFFFFFFFFFFFFFF2A
:1016D000FFFFFFFFFFFFFFFFFFFFFFFFFFFFFFFF1A
:1016E000FFFFFFFFFFFFFFFFFFFFFFFFFFFFDEF733
:1016F0007DEF9AD6BAD6BAD6DBDEDBDE9EF7BEF732
:10170000FFFFFFFFFFFFFFFFFFFFFFFFFFFF0000E7
:10171000424DB60400000000000036000000280022
:101720000000180000001800000001001000030075
:101730000000800400000000000000000000000025
:10174000000000000000DFFFD7C56A6241300038AA
:1017500000380038003800380038003800300030D9
:1017600000300030002800300028003000284128D8
:10177000864114A57EF7F8C58659007800B000B8F8
:1017800000B800B000B000B000B000A800A800A8E9
:1017900000A8009800A00098009800900090008891
:1017A0000068A238D3A40C73007000C800C000C049
:1017B00000C000C000B800B800B000B800B000B071
:1017C00000B000B000A800A800A800A800A00098E1
:1017D000009000704541043900A000C800C800C056
:1017E00000C000C000C000C000C000C000C000C0F9
:1017F00000C000C000C000B800C000B800B800A819
:10180000009800882128A33800B000D000C800C884
:1018100020C8A2C8C3C082C800C800C800C000C891
:1018200000C820C841C0C3C8A3C041C800C000C090
:10183000009800900028823000B000C800C800C89E
:10184000E4C86DD3F4DC0CD3C3C800C000C800C822
:1018500000C861C069D2B2DC51DC45C920C800B8FB
:1018600000A000900028A33800B800D800D021D0F4
:10187000A6D9D7F5DFFFBAF66DDBC3D000D020D0F4
:1018800061C8ABDAF7EDDFFFFBFE6AE221D000C0F2
:1018900000A000A00028823000B800D000D800D0FE
:1018A00004D930EC3CFFDFFF9AF62DDBE4D082C890
:1018B0008ADAD7EDBFFF7DFF35F566D921D000C0AC
:1018C00000A800980030A33800B800D800D000D895
:1018D00021D086E172EC3DFFDFFF7AF6AFE34DE306
:1018E000D7F5BFFF7EFF55FD28E262D800D000C8C3
:1018F00000A800A00028823800C000D800D800D876
:1019000000D820D866E151EC1CFFBEFF1CFFDBFEB7
:10191000BFFF5DFF35F508E262D800D800D800C8E7
:1019200000B000A00030A33800C000E000E000E0FC
:1019300000E000E000E025E172F49EFFFFFFFFFF02
:10194000DFFF76FDC7E141E000D800E000E000D015
:1019500000B000A80030823000C000E000E000E0ED
:1019600000E000E000E082E0AFEB5DFFFFFFFFFF83
:10197000DFFFB2EC25E100D800E000E000E000D09D
:1019800000B000A80030A33800C000E800E000E884
:1019900000E020E8A2E0EBF2F8FDDFFFBFFFBFFFB1
:1019A000DFFFBAFEAEEB04E920E000E800E000D87B
:1019B00000B800B00030823800C800E000E800E065
:1019C00000E882E0EBF2F7FDBFFF5DFF96FD14F546
:1019D0001CFFDEFFBAFEAEF304E900E000E800D829
:1019E00000B800A80030A33800C800F000E820F0DC
:1019F00082E8ECF239FEDFFF5DFFD3FCC7F186F130
:101A0000F0F3FCFEDFFFDBFECFF3E4F000E800E0E4
:101A100000B800B00030823800C800E800F000E8EC
:101A200045F1F3FCDFFF5DFFD3FC65F121F000E839
:101A300004F1F0F3FCFEDFFF39FEC7F121F000E016
:101A400000C000B00030A34000D000F000F021F84A
:101A5000E3F0F0FBF8FD92FCA6F921F000F000F8AD
:101A600000F025F9CFFBF8FDD3FC86F920F000E863
:101A700000C000B80030823800D000F000F800F05C
:101A800041F824F108FA25F941F800F000F800F0D7
:101A900000F800F0E4F8E7F986F961F000F800E8F2
:101AA00000C800B80030A34000D000F800F800F8EB
:101AB00000F821F821F821F800F800F800F800F803
:101AC00000F800F800F841F820F821F800F800E0EC
:101AD00000C000B80038A23800D000F800F800F0CC
:101AE00000F800F000F000F000F000E800F000E87E
:101AF00000E800E000E800E000E000D800D800C8FE
:101B000000C000B80030664900A000F000F800F8FE
:101B100000F000F000F000F000E800E800E000E075
:101B200000D800D800D800D800D000D000C800D01D
:101B300000C800B04128AF83215800B800E000E899
:101B400000F000E800E800E800F000E800E800E845
:101B500000E800E000E000D800D800D000D000C8C5
:101B600000B800680852BBDE69624158008800A8CE
:101B700000B000B800B800C000C800D000D000D845
:101B800000D000C800C000B800B000B000A00090B5
:101B900000608751B6B5DFFFBBDEF08B8749A2300E
:101BA000A2308230A3388230A2388238A3388238FB
:101BB000A2388238A3388230A2308230A330243950
:101BC0004D7318C6DFFF0000424D3E0700000000C5
:101BD000000036000000280000001E0000001E006B
:101BE00000000100100003000000080700000000D2
:101BF0000000000000000000000000000000FFFFE7
:101C0000FFFFFFFFFFFFFFFFFFFFFFFFFFFFFFFFE4
:101C1000FFFFFFFFFFFFFFFFFFFFFFFFFFFFFFFFD4
:101C2000FFFFFFFFFFFFFFFFFFFFFFFFFFFFFFFFC4
:101C3000FFFFFFFFFFFFFFFFFFFFFFFFFFFF3CE78F
:101C4000F0834529E418E418E418E418E418E418CB
:101C5000E418E418E418E418E418E418E418E418A4
:101C6000E418E418E418E418E4180421CB5A38C640
:101C7000FFFFFFFFFFFFFFFF9BDE45292719F14212
:101C8000534395437443954B744395437443954B29
:101C9000744395437443954B744395437443954BF8
:101CA0007443954373433343EB218210F39CFFFF4E
:101CB000FFFFBEF7A631CA21F84B1754185417542A
:101CC00018541754185417541854175418541754B8
:101CD00018541754185417541854175418541754A8
:101CE000185417541854113B821038C6FFFFB7BD63
:101CF000C410F7531854385C1754385C1854385CC7
:101D00001754385C1854385C1754385C1854385CD5
:101D10001754385C1854385C1754385C1854385CC5
:101D20001754385CCA210C63FFFFCF7BCA211754BC
:101D30001854175418541754185417541854175447
:101D40001854175418541754185417541854175437
:101D50001854175418541754185417541854175427
:101D6000123B2421FFFF6E732C2A385C1754385C19
:101D70001854385C1754385C1854385C1754385C65
:101D80001854385C1754385C1854385C1754385C55
:101D90001854385C1754385C1854385C5343E318B3
:101DA000FFFF4D6B2C2A175418541754185417540E
:101DB00018541754185417541854175418541754C7
:101DC00018541754185417541854175418541754B7
:101DD00018541754185417545443E418FFFF6E73E3
:101DE0002C2A385C1854385C1754385C1854385C0A
:101DF0001754385C1854385C1754385C1854385CE5
:101E00001754385C1854385C1754385C1854385CD4
:101E10001754385C5343E418FFFF4D6B2C2A1754BA
:101E20001854175418541754185417541854175456
:101E300038547A8DDDCEFDCE3CB6786418541754F4
:101E40001854175418541754185417541854175436
:101E50005443E418FFFF6E732C2A385C1754385C27
:101E60001854385C1754385C1854385C3CB6FFFF83
:101E7000FEDE7DBEBFF79FEF9964385C1754385C77
:101E80001854385C1754385C1854385C5343E418C1
:101E9000FFFF4D6B2C2A175418541754185417541D
:101EA0001854175418547864FFFFBCC6385417549C
:101EB0009964BEF7DDCE17541854175418541754AC
:101EC00018541754185417545443E418FFFF6E73F2
:101ED0002C2A385C1854385C1754385C1854385C19
:101EE00017547B95FFFF7B951754385C1854BDC67B
:101EF0009FF7585C1854385C1754385C1854385C99
:101F00001754385C5343E418FFFF4D6B2C2A1754C9
:101F10001854175418541754185417541854FBA530
:101F2000FFFF7864185417541854FBA5FFFFD974A9
:101F30001854175418541754185417541854175445
:101F40005443E418FFFF6E732C2A385C1754385C36
:101F50001854385C1754385C18547DBEDFFF786421
:101F60001854385C1754FBA5FFFF1A851754385CCA
:101F70001854385C1754385C1854385C5343E418D0
:101F8000FFFF4D6B2C2A175418541754185417542C
:101F90001854175418545CB6FFFF575C1854175464
:101FA0001854DA9DFFFF197D18541754185417540C
:101FB00018541754185417545443E418FFFF6E7301
:101FC0002C2A385C1854385C1754385C1854385C28
:101FD00017541CAEFFFF996C1754385C1854FCADB5
:101FE000FFFF1A7D1854385C1754385C1854385C5D
:101FF0001754385C5343E418FFFF4D6B2C2A1754D9
:1020000018541754185417541854175418545A8DF8
:10201000FFFF39851854175418547CBEFFFF7864AD
:102020001854175418541754185417541854175454
:102030005443E418FFFF6E732C2A385C1754385C45
:102040001854385C1754385C18547964DFFF9DC607
:102050001854385C575CBFF73EE7385C1754385C5F
:102060001854385C1754385C1854385C5343E418DF
:10207000FFFF4D6B2C2A175418541754185417543B
:102080001854175418541754FCA5DFFFFED61BAE86
:102090005EE7DFF73A8D1754185417541854175445
:1020A00018541754185417545443E418FFFF6E7310
:1020B0002C2A385C1854385C1754385C1854385C37
:1020C0001754385C1854BB9DFED65EE7FED63A85A1
:1020D0001754385C1854385C1754385C1854385C02
:1020E0001754385C5343E418FFFF4D6B2C2A1754E8
:1020F0001854175418541754185417541854175484
:102100001854175418541754185417541854175473
:102110001854175418541754185417541854175463
:102120005443E418FFFF6E732C2A385C1754385C54
:102130001854385C1754385C1854385C1754385CA1
:102140001854385C1754385C1854385C1754385C91
:102150001854385C1754385C1854385C5343E418EE
:10216000FFFF4D6B2C2A175418541754185417544A
:102170001854175418541754185417541854175403
:1021800018541754185417541854175418541754F3
:1021900018541754185417545443E418FFFF6E731F
:1021A0000C2A385C1854385C1754385C1854385C66
:1021B0001754385C1854385C1754385C1854385C21
:1021C0001754385C1854385C1754385C1854385C11
:1021D0001754385C5343E418FFFF518C68191754A7
:1021E0001854175418541754185417541854175493
:1021F0001854175418541754185417541854175483
:102200001854175418541754185417541854175472
:10221000B132A631FFFFBAD6831094431754385C0D
:102220001854385C1754385C1854385C1754385CB0
:102230001854385C1754385C1854385C1754385CA0
:102240001854385C1754385C185417540611318CE4
:10225000FFFFFFFF8F7BC4105443175418541754CB
:102260001854175418541754185417541854175412
:102270001854175418541754185417541854175402
:1022800018541754D74BAA2166315DEFFFFFFFFFAB
:10229000BFFFAF7B83104819EB292D322C2A2D2A42
:1022A0002C2A2D322C2A2D2A2C2A2D322C2A2D2A6A
:1022B0002C2A2D322C2A2D2A2C2A2D322C2AAA21E6
:1022C000A410E841DCE6FFFFFFFFFFFFFFFFFFFF79
:1022D000BBDE718CAE73AE73AF7BAE73AE73AE7399
:1022E000AF7BAE73AE73AE73AF7BAE73AE73AE73D4
:1022F000AF7BAE73AE73AE73AF7BEF7BF7BDDEF734
:10230000FFFFFFFFFFFF0000424D3E0700000000FF
:10231000000036000000280000001E0000001E0023
:10232000000001001000030000000807000000008A
:102330000000000000000000000000000000FFFF9F
:10234000FFFFFFFFFFFFDBDED7BDF8C5D8C5F8C52F
:10235000D7BDF8C5D8C5F8C5D7BDF8C5D8C5F8C527
:10236000D7BDF8C5D8C5F8C5D7BDF8C5D8C5F8C517
:10237000BAD6FFFFFFFFFFFFFFFFFFFFFFFFDAD629
:10238000494AA310C4100619061906190619061998
:102390000619061906190619061906190619061945
:1023A00006190619061906190619C510A3102842A0
:1023B000BBDEFFFFFFFFFFFFDCE62521A921B54BB8
:1023C0001854385C1754385C1854385C1754385C0F
:1023D0001854385C1754385C1854385C1754385CFF
:1023E0001854385C1754385CB54BCB210421BBDE44
:1023F000FFFFFFFFCB5A8921184C1754185417546C
:102400001854175418541754185417541854175470
:102410001854175418541754185417541854175460
:102420001854175418541754CA212842FFFF5DEF5F
:10243000A310944B1854385C1754385C1854385C0B
:102440001754385C1854385C1754385C1854385C8E
:102450001754385C1854385C1754385C1854385C7E
:102460001754385C9443A310DAD638C6C410F64B20
:102470001854175418541754185417541854175400
:1024800018541754185417541854175418541754F0
:1024900018541754185417541854175418541754E0
:1024A0001854C41018C639CEC410385C1754385CA0
:1024B0001854385C1754385C1854385C1754385C1E
:1024C0001854385C1754385C1854385C1754385C0E
:1024D0001854385C1754385C1854385C1754E6109C
:1024E000D8C518C6C4101754185417541854175484
:1024F0001854175418541754185417541854175480
:10250000185417541854175418541754185417546F
:1025100018541754185417541854E510F8C539CEE8
:10252000C410385C1854385C1754385C1854385C44
:102530001754385C1854385C9864D974385C385C2B
:102540001754385C1854385C1754385C1854385C8D
:102550001754385C1854E510D7BD18C6C41017546A
:10256000185417541854175418541754185417540F
:10257000BB9D3EDFDFFFDFF79FEF3BAE595C17549B
:1025800018541754185417541854175418541754EF
:102590001854E510F8C539CEC410385C1754385CAF
:1025A0001854385C1754385C1854385C7FEF7DBE83
:1025B0003A853A857DBEFFFF7DC6385C1754385C8E
:1025C0001854385C1754385C1854385C1754E610AB
:1025D000D8C518C6C4101754185417541854175493
:1025E0001854175418541754385C17541854175467
:1025F00018541DD7DFFF7864185417541854175413
:1026000018541754185417541854E510F8C539CEF7
:10261000C410385C1854385C1754385C1854385C53
:102620001754385C1854385C1754385C1854DDCE95
:10263000DFFFFA7C1854385C1754385C1854385C47
:102640001754385C1854E510D7BD18C6C410175479
:10265000185417541854175418541754185417541E
:10266000185417541854375C7B8DBFF75FE7375405
:1026700018541754185417541854175418541754FE
:102680001854E510F8C539CEC410385C1754385CBE
:102690001854385C1754385C1854385C17547DBE95
:1026A000FED67FEFDFFFFED6B96C385C1754385C7E
:1026B0001854385C1754385C1854385C1754E610BA
:1026C000D8C518C6C41017541854175418541754A2
:1026D000185417541854175418549A955CBE9CBE3D
:1026E000DFFF9CBE3854175418541754185417540D
:1026F00018541754185417541854E510F8C539CE07
:10270000C410385C1854385C1754385C1854385C62
:102710001754385C1854385C1754385C9B95FFFF8D
:10272000BA95385C1854385C1754385C1854385CC7
:102730001754385C1854E510D7BD18C6C410175488
:10274000185417541854175418541754185417542D
:102750001854175418541754B96CDFF75CBE17544B
:10276000185417541854175418541754185417540D
:102770001854E510F8C539CEC410385C1754385CCD
:102780001854385C1754385C1854385CBA9DBB9D9B
:102790003854385CFCA5FFFF1CA6385C1754385C25
:1027A0001854385C1754385C1854385C1754E610C9
:1027B000D8C518C6C41017541854175418541754B1
:1027C00018541754185417547B8DBFF7DFFF9EEF32
:1027D000FFFF7EE7796417541854175418541754A0
:1027E00018541754185417541854E510F8C539CE16
:1027F000C410385C1854385C1754385C1854385C72
:102800001754385C1854B96C9A95FBA57B8D996464
:102810001754385C1854385C1754385C1854385CBA
:102820001754385C1854E510D7BD18C6C410175497
:10283000185417541854175418541754185417543C
:10284000185417541854175418541754185417542C
:10285000185417541854175418541754185417541C
:102860001854E510F8C539CEC410385C1754385CDC
:102870001854385C1754385C1854385C1754385C5A
:102880001854385C1754385C1854385C1754385C4A
:102890001854385C1754385C1854385C1754E610D8
:1028A000D8C518C6C41017541854175418541754C0
:1028B00018541754185417541854175418541754BC
:1028C00018541754185417541854175418541754AC
:1028D00018541754185417541854E510F8C559CE05
:1028E000C41017541854385C1754385C1854385CAA
:1028F0001754385C1854385C1754385C1854385CDA
:102900001754385C1854385C1754385C1854385CC9
:102910001754385C184CC410F7BD5DEFC31853430F
:10292000185417541854175418541754185417544B
:10293000185417541854175418541754185417543B
:10294000185417541854175418541754185417542B
:102950007543A3101CE7FFFF0C634719F64B385C67
:102960001854385C1754385C1854385C1754385C69
:102970001854385C1754385C1854385C1754385C59
:102980001854385C1754385C1854185488218B5AE2
:10299000FFFFFFFF5DEFA73947193243D74B1754AD
:1029A00018541754185417541854175418541754CB
:1029B00018541754185417541854175418541754BB
:1029C0001854D64B544368196529FBDEFFFFFFFFFF
:1029D000FFFF5DEF2C63C318C410E610E510E5108F
:1029E000E510E610E510E510E510E610E510E5103D
:1029F000E510E610E510E510E510E610E510C4104E
:102A0000C3180D6B1CE7FFFFFFFFFFFFFFFFFFFF7A
:102A1000FFFF7DEF9AD659CE7AD659CE7AD659CEC7
:102A20007AD659CE7AD659CE7AD659CE7AD659CECA
:102A30007AD659CE7AD659CE7AD679CE7EF7FFFF9E
:102A4000FFFFFFFFFFFF0000424D3E0700000000B8
:102A5000000036000000280000001E0000001E00DC
:102A60000000010010000300000008070000000043
:102A70000000000000000000000000000000FFFF58
:102A8000FFFFFFFFFFFFDBDEF7BD18C6F8C518C666
:102A9000F7BD18C6F8C518C6F7BD18C6F8C518C6DC
:102AA000F7BD18C6F8C518C6F7BD18C6F8C518C6CC
:102AB0003DEFFFFFFFFFFFFFFFFFFFFFFFFFDAD646
:102AC000494AA310A410051105110511051105119E
:102AD0000511051105110511051105110511051146
:102AE0000511051105110511E510A410C318AE73E9
:102AF000BEF7FFFFFFFFFFFFFCE62521A921B54B35
:102B00001854385C1754385C1854385C1754385CC7
:102B10001854385C1754385C1854385C1754385CB7
:102B20001854385C175418543243E510AB5ADFFF81
:102B3000FFFFFFFFCB5A8921184C17541854175424
:102B40001854175418541754185417541854175429
:102B50001854175418541754185417541854175419
:102B6000185417541854D54BA410F39CFFFF5DEF75
:102B7000A310944B1854385C1754385C1854385CC4
:102B80001754385C1854385C1754385C1854385C47
:102B90001754385C1854385C1754385C1854385C37
:102BA0001754385C6E322842FFFF38C6C410F64B0B
:102BB00018541754185417541854175418541754B9
:102BC00018541754185417541854175418541754A9
:102BD0001854175418541754185417541854175499
:102BE0005443E318FFFF38C6E510385C1754385CCF
:102BF0001854385C1754385C1854385C1754385CD7
:102C00001854385C1754385C1854385C1754385CC6
:102C10001854385C1754385C1854385C7443C31823
:102C2000FFFF17BEE51017541854175418541754C3
:102C30001854175418541754185417541854175438
:102C40001854175418541754185417541854175428
:102C500018541754185417547543C318FFFF38C637
:102C6000E510385C1854385C1754385C1854385CDC
:102C70001754385C1854385C1754385C1854585C36
:102C80001754385C1854385C1754385C1854385C46
:102C90001754385C7443C318FFFF17BEE510175470
:102CA00018541754185417541854175418541754C8
:102CB0001854175418541754DA7C3DD7FA74175423
:102CC00018541754185417541854175418541754A8
:102CD0007543C318FFFF38C6E510385C1754385CDD
:102CE0001854385C1754385C1854385C1754385CE6
:102CF0001854385C3985FFFF5A85385C1754385CA6
:102D00001854385C1754385C1854385C7443C31832
:102D1000FFFF17BEE51017541854175418541754D2
:102D20001854175418543754996CB86CB96CB86C63
:102D3000BB9DFFFFDB9D786418541754185417543B
:102D400018541754185417547543C318FFFF38C646
:102D5000E510385C1854385C1754385C1854385CEB
:102D60001754B974DFFFFFFFFFFFFFFFFFFFFFFFF7
:102D7000FFFF3EDF1854385C1754385C1854385C39
:102D80001754385C7443C318FFFF17BEE51017547F
:102D90001854175418541754185417541854585C8E
:102DA0009FEFBCC6D974D86CDB9DFFFFDBA5986490
:102DB00018541754185417541854175418541754B7
:102DC0007543C318FFFF38C6E510385C1754385CEC
:102DD0001854385C1754385C1854385C5A8DFFFF0F
:102DE000B96C385C3985FFFF5A85385C1754385CFC
:102DF0001854385C1754385C1854385C7443C31842
:102E0000FFFF17BEE51017541854175418541754E1
:102E1000185417541854175438541DD7DDCE37544E
:102E20003A85FFFF7A8D17541854175418541754C5
:102E300018541754185417547543C318FFFF38C655
:102E4000E510385C1854385C1754385C1854385CFA
:102E50001754385C1854F97CDFFF5A8D3A85FFFF10
:102E60005985385C1854385C1754385C1854385CF1
:102E70001754385C7443C318FFFF17BEE51017548E
:102E800018541754185417541854175418541754E6
:102E900018541754BDC63DDF7B95FFFF7A85175444
:102EA00018541754185417541854175418541754C6
:102EB0007543C318FFFF38C6E510385C1754385CFB
:102EC0001854385C1754385C1854385C1754385C04
:102ED0009964BFF7DECEFFFF5A85385C1754385C23
:102EE0001854385C1754385C1854385C7443C31851
:102EF000FFFF17BEE51017541854175418541754F1
:102F00001854175418541754185417541854FBA530
:102F1000FFFFFFFF7A8D1754185417541854175495
:102F200018541754185417547543C318FFFF38C664
:102F3000E510385C1854385C1754385C1854385C09
:102F40001754385C1854385C175458643CB69DC606
:102F50007864385C1854385C1754385C1854385C02
:102F60001754385C7443C318FFFF17BEE51017549D
:102F700018541754185417541854175418541754F5
:102F800018541754185417541854175418541754E5
:102F900018541754185417541854175418541754D5
:102FA0007543C318FFFF38C6E510385C1754385C0A
:102FB0001854385C1754385C1854385C1754385C13
:102FC0001854385C1754385C1854385C1754385C03
:102FD0001854385C1754385C1854385C7443C31860
:102FE000FFFF17BEE5101754185417541854175400
:102FF0001854175418541754185417541854175475
:103000001854175418541754185417541854175464
:1030100018541754185417547543C318FFFF39CE6A
:10302000C41018541854385C1754385C1854385C61
:103030001754385C1854385C1754385C1854385C92
:103040001754385C1854385C1754385C1854385C82
:103050001754385C7343C318FFFFDBDEA310B54B76
:103060001854175418541754185417541854175404
:1030700018541754185417541854175418541754F4
:1030800018541754185417541854175418541754E4
:10309000D13AA631FFFFFFFFC7394E2A1754385CDB
:1030A0001854385C1754385C1854385C1754385C22
:1030B0001854385C1754385C1854385C1754385C12
:1030C0001854385C1754385C185417540611318C56
:1030D000FFFFFFFF18C6A3108E32F64B185417548B
:1030E0001854175418541754185417541854175484
:1030F0001854175418541754185417541854175474
:1031000018541754D74BAA2166295DEFFFFFFFFF24
:10311000FFFFB7BD0421E510CA212D322C2A2D2A2C
:103120002C2A2D322C2A2D2A2C2A2D322C2A2D2ADB
:103130002C2A2D322C2A2D2A2C2A2D320C2AAA2177
:10314000A310C841DBDEFFFFFFFFFFFFFFFFFFFF14
:103150007DEF34A5CF7BAE73AF7BAE73AE73AE7332
:10316000AF7BAE73AE73AE73AF7BAE73AE73AE7345
:10317000AF7BAE73AE73AE73AF7BEF7BD7BDBEF7E5
:10318000FFFFFFFFFFFF0000424D3E070000000071
:10319000000036000000280000001E0000001E0095
:1031A00000000100100003000000080700000000FC
:1031B0000000000000000000000000000000FFFF11
:1031C000FFFFFFFFFFFFFFFFFFFFFFFFFFFFFFFF0F
:1031D000FFFFFFFFFFFFFFFFFFFFFFFFFFFFFFFFFF
:1031E000FFFFFFFFFFFFFFFFFFFFFFFFFFFFFFFFEF
:1031F000FFFFFFFFFFFFFFFFFFFFFFFFFFFFBEF728
:1032000015ADE841C318E418E418E418E418E4180C
:10321000E418E418E418E418E418E418E418E418CE
:10322000E418E418E418E418E418E420AA5218C6D4
:10323000FFFFFFFFFFFFFFFFBFFF0C63A3106F3A0D
:10324000534395437443954B744395437443954B53
:10325000744395437443954B744395437443954B22
:10326000744395437443534BEB298210B294FFFF90
:10327000FFFFFFFF318CC510B64B1754185417547D
:1032800018541754185417541854175418541754E2
:1032900018541754185417541854175418541754D2
:1032A000185417541854123B831018C6FFFFBFFF61
:1032B000E42032431854385C1754385C1854385C96
:1032C0001754385C1854385C1754385C1854385C00
:1032D0001754385C1854385C1754385C1854385CF0
:1032E0001754385CEB29EC62FFFF79CEC410D64B43
:1032F0001854175418541754185417541854175472
:103300001854175418541754185417541854175461
:103310001854175418541754185417541854175451
:1033200033430421FFFF38C6E510385C1754385C7E
:103330001854385C1754385C1854385C1754385C8F
:103340001854385C1754385C1854385C1754385C7F
:103350001854385C1754385C1854385C7343C318DD
:10336000FFFF17BEE510175418541754185417547C
:1033700018541754185417541854175418541754F1
:1033800018541754185417541854175418541754E1
:1033900018541754185417547543C318FFFF38C6F0
:1033A000E510385C1854385C1754385C1854385C95
:1033B0001754385C1854385C1754385C1854385C0F
:1033C0001754385C1854385C1754385C1854385CFF
:1033D0001754385C7443C318FFFF17BEE510175429
:1033E0001854175418541754185417541854175481
:1033F0003A8D3BAE1ED7DDCEDBA5575C1854175473
:103400001854175418541754185417541854175460
:103410007543C318FFFF38C6E510385C1754385C95
:103420001854385C1754385C1854996CBFF77FEF08
:103430007DC6FED6DFFF7FEF7964385C1754385CB9
:103440001854385C1754385C1854385C7443C318EB
:10345000FFFF17BEE510175418541754185417548B
:103460001854175418543754DA74175418541754FE
:10347000D96CDFF7BDC61754185417541854175495
:1034800018541754185417547543C318FFFF38C6FF
:10349000E510385C1854385C1754385C1854385CA4
:1034A0001754385C1854385C1754385C1854FED6DE
:1034B0009FF758641854385C1754385C1854385CBB
:1034C0001754385C7443C318FFFF17BEE510175438
:1034D0001854175418541754185417541854175490
:1034E00018541754185417541854FDCEBFF7375CAE
:1034F0001854175418541754185417541854175470
:103500007543C318FFFF38C6E510385C1754385CA4
:103510001854385C1754385C1854385C1754385CAD
:103520001854585CDC9DFFFFBDCE385C1754385CE6
:103530001854385C1754385C1854385C7443C318FA
:10354000FFFF17BEE510175418541754185417549A
:103550001854175418541754DBA5FFFFFFFFFFFF43
:10356000FFFF1DD7795C175418541754185417547B
:1035700018541754185417547543C318FFFF38C60E
:10358000E510385C1854385C1754385C1854385CB3
:103590001754385CBB9DDFF77A959B95D96C585CC6
:1035A0001754385C1854385C1754385C1854385C1D
:1035B0001754385C7443C318FFFF17BEE510175447
:1035C000185417541854175418541754185417549F
:1035D000DBA59EEF18541754185417541854175459
:1035E000185417541854175418541754185417547F
:1035F0007543C318FFFF38C6E510385C1754385CB4
:103600001854385C1754385C1854385CBA9DBFF7AE
:103610001854385C1754385C1854385C1754385CAC
:103620001854385C1754385C1854385C7443C31809
:10363000FFFF17BEE51017541854175418541754A9
:103640001854175418541754DBA5DFF75EE73DDF15
:103650005EE73DDFB96C17541854175418541754CB
:1036600018541754185417547543C318FFFF38C61D
:10367000E510385C1854385C1754385C1854385CC2
:103680001754385C3A85DDCEBDC6DDCEBDCEDDCE6D
:103690009864385C1854385C1754385C1854385C9B
:1036A0001754385C7443C318FFFF17BEE510175456
:1036B00018541754185417541854175418541754AE
:1036C000185417541854175418541754185417549E
:1036D000185417541854175418541754185417548E
:1036E0007543C318FFFF38C6E510385C1754385CC3
:1036F0001854385C1754385C1854385C1754385CCC
:103700001854385C1754385C1854385C1754385CBB
:103710001854385C1754385C1854385C7443C31818
:10372000FFFF17BEE51017541854175418541754B8
:10373000185417541854175418541754185417542D
:10374000185417541854175418541754185417541D
:1037500018541754185417547543C318FFFF38C62C
:10376000C41018541854385C1754385C1854385C1A
:103770001754385C1854385C1754385C1854385C4B
:103780001754385C1854385C1754385C1854385C3B
:103790001754385C7343C318FFFFDAD6A310B54B38
:1037A00018541754185417541854175418541754BD
:1037B00018541754185417541854175418541754AD
:1037C000185417541854175418541754185417549D
:1037D000D13A8631FFFFFFFFA7394E2A1754385CD4
:1037E0001854385C1754385C1854385C1754385CDB
:1037F0001854385C1754385C1854385C1754385CCB
:103800001854385C1754385C18541854261910840E
:10381000FFFFFFFFF8C5A310AF32F74B1854175442
:10382000185417541854175418541754185417543C
:10383000185417541854175418541754185417542C
:1038400018541754D74BCA2145293CE7FFFFFFFF07
:10385000FFFF96B5E4180511EA212D322C2A2D2AF6
:103860002C2A2D322C2A2D2A2C2A2D322C2A2D2A94
:103870002C2A2D322C2A2D2A2C2A2D322C2AAA2110
:10388000A410C841BBDEFFFFFFFFFFFFFFFFFFFFEC
:103890005DEF14A5AE73AE73AF7BAE73AE73AE7354
:1038A000AF7BAE73AE73AE73AF7BAE73AE73AE73FE
:1038B000AF7BAE73AE73AE73AF7BEF7BD7BDBEF79E
:1038C000FFFFFFFFFFFF0000424D3E07000000002A
:1038D000000036000000280000001E0000001E004E
:1038E00000000100100003000000080700000000B5
:1038F0000000000000000000000000000000FFFFCA
:10390000FFFFFFFFFFFFFFFFFFFFFFFFFFFFFFFFC7
:10391000FFFFFFFFFFFFFFFFFFFFFFFFFFFFFFFFB7
:10392000FFFFFFFFFFFFFFFFFFFFFFFFFFFFFFFFA7
:10393000FFFFFFFFFFFFFFFFFFFFFFFFFFFFDEF7C0
:1039400035AD0842E318E418E418E418E418E41864
:10395000E418E418E418E418E418E418E418E41887
:10396000E418E418E418E418E418E318E739F39CC1
:10397000DFFFFFFFFFFFFFFFBFFF2D6B83086E3AE6
:10398000524395437443954B744395437443954B0D
:10399000744395437443954B744395437443954BDB
:1039A000744395437443744B8E32A410AB52BFFFE3
:1039B000FFFFFFFF5294C410B64B1754185417540E
:1039C000185417541854175418541754185417549B
:1039D000185417541854175418541754185417548B
:1039E000185417541854D54BE510AE73FFFFBFFFA2
:1039F000042112431854385C1754385C1854385C4E
:103A00001754385C1854385C1754385C1854385CB8
:103A10001754385C1854385C1754385C1854385CA8
:103A20001754385C3243C3185EF779CEC410D64BB6
:103A3000185417541854175418541754185417542A
:103A4000185417541854175418541754185417541A
:103A5000185417541854175418541754185417540A
:103A6000F74BA41039CE39CEC410385C1754385CEB
:103A70001854385C1754385C1854385C1754385C48
:103A80001854385C1754385C1854385C1754385C38
:103A90001854385C1754385C1854385C1754E610C6
:103AA000D8C518C6C41017541854175418541754AE
:103AB00018541754185417541854175418541754AA
:103AC000185417541854175418541754185417549A
:103AD00018541754185417541854E510F8C539CE13
:103AE000C410385C1854385C1754385C1854385C6F
:103AF0001754385C1854385C1754385C1854385CC8
:103B00001754385C1854385C1754385C1854385CB7
:103B10001754385C1854E510D7BD18C6C410175494
:103B20001854175418541754185417541854175439
:103B3000185478645CB6FDD6BDC65A8D1854175417
:103B40001854175418541754185417541854175419
:103B50001854E510F8C539CEC410385C1754385CD9
:103B60001854385C1754385C1854385C785C7FEF14
:103B7000BFFF9DC6FECEFFFF3CB6385C1754385CD5
:103B80001854385C1754385C1854385C1754E610D5
:103B9000D8C518C6C41017541854175418541754BD
:103BA0001854175418541754FCADDFFF1A851754D6
:103BB00018541BAEFFFFF9741854175418541754B7
:103BC00018541754185417541854E510F8C539CE22
:103BD000C410385C1854385C1754385C1854385C7E
:103BE0001754385CFED67FEF3754385C1854D974BC
:103BF000FFFF3CAE1854385C1754385C1854385CDE
:103C00001754385C1854E510D7BD18C6C4101754A3
:103C10001854175418541754185417541854175448
:103C20009FEFFDD6185417541854B86CFFFF3BAEE5
:103C30001854175418541754185417541854175428
:103C40001854E510F8C539CEC410385C1754385CE8
:103C50001854385C1754385C1854385C9FF77FE769
:103C6000FA74385C17545CBEFFFF7A8D1754385CC9
:103C70001854385C1754385C1854385C1754E610E4
:103C8000D8C518C6C41017541854175418541754CC
:103C90001854175418541754BFF7BFF7DFFFBFF776
:103CA000FFFFFFFFBDC6175418541754185417547C
:103CB00018541754185417541854E510F8C539CE31
:103CC000C410385C1854385C1754385C1854385C8D
:103CD0001754385CFEDE3EDF78649B957B8DFA7C62
:103CE0001754385C1854385C1754385C1854385CD6
:103CF0001754385C1854E510D7BD18C6C4101754B3
:103D00001854175418541754185417541854175457
:103D10005CB6BEEF796417541854175418541754EE
:103D20001854175418541754185417541854175437
:103D30001854E510F8C539CEC410385C1754385CF7
:103D40001854385C1754385C1854385CB86CFFFF52
:103D50003CB6385C1754385C1854385C1754385CDF
:103D60001854385C1754385C1854385C1754E610F3
:103D7000D8C518C6C41017541854175418541754DB
:103D800018541754185417541854FBA5FFFFFDCEB0
:103D90003CB63BAE1ED7175418541754185417543A
:103DA00018541754185417541854E510F8C539CE40
:103DB000C410385C1854385C1754385C1854385C9C
:103DC0001754385C1854385C197DDDCE3EE73EDF71
:103DD0001CAE385C1854385C1754385C1854385C86
:103DE0001754385C1854E510D7BD18C6C4101754C2
:103DF0001854175418541754185417541854175467
:103E00001854175418541754185417541854175456
:103E10001854175418541754185417541854175446
:103E20001854E510F8C539CEC410385C1754385C06
:103E30001854385C1754385C1854385C1754385C84
:103E40001854385C1754385C1854385C1754385C74
:103E50001854385C1754385C1854385C1754E61002
:103E6000D8C518C6C41017541854175418541754EA
:103E700018541754185417541854175418541754E6
:103E800018541754185417541854175418541754D6
:103E900018541754185417541854E510F8C539CE4F
:103EA000C41018541854385C1754385C1854385CD3
:103EB0001754385C1854385C1754385C1854385C04
:103EC0001754385C1854385C1754385C1854385CF4
:103ED0001754385C1854C410D7BDDBDEA310954BC3
:103EE0001854175418541754185417541854175476
:103EF0001854175418541754185417541854175466
:103F00001854175418541754185417541854175455
:103F1000D64BA3109AD6FFFFC7392D2A1754385C09
:103F20001854385C1754385C1854385C1754385C93
:103F30001854385C1754385C1854385C1754385C83
:103F40001854385C1754385C1854385C6E3266313B
:103F5000DFFFFFFF18C6A3108E32F64B185417541C
:103F600018541754185417541854175418541754F5
:103F700018541754185417541854175418541754E5
:103F800018541754F84BAF32831096B5FFFFFFFF5C
:103F9000FFFFB7BDE420E510CA212D322C2A2D2ABF
:103FA0002C2A2D322C2A2D2A2C2A2D322C2A2D2A4D
:103FB0002C2A2D322C2A2D2A2C2A2D322C2ACB21A8
:103FC0000611C31834A5FFFFFFFFFFFFFFFFFFFF30
:103FD0007EF734A5CF7BAE73AF7BAE73AE73AE739B
:103FE000AF7BAE73AE73AE73AF7BAE73AE73AE73B7
:103FF000AF7BAE73AE73AE73AF7BAE73F4A45CE70E
:10400000FFFFFFFFFFFF0000424D3E0700000000E2
:10401000000036000000280000001E0000001E0006
:10402000000001001000030000000807000000006D
:104030000000000000000000000000000000FFFF82
:10404000FFFFFFFFFFFFFFFFFFFFFFFFFFFFFFFF80
:10405000FFFFFFFFFFFFFFFFFFFFFFFFFFFFFFFF70
:10406000FFFFFFFFFFFFFFFFFFFFFFFFFFFFFFFF60
:10407000FFFFFFFFFFFFFFFFFFFFFFFFFFFFBEF799
:1040800015ADE841C318E418E418E418E418E4187E
:10409000E418E418E418E418E418E418E418E41840
:1040A000E418E418E418E418E418E420AA5218C646
:1040B000FFFFFFFFFFFFFFFFBFFF0C63A3106F3A7F
:1040C000534395437443954B744395437443954BC5
:1040D000744395437443954B744395437443954B94
:1040E000744395437443534BEB298210B294FFFF02
:1040F000FFFFFFFF318CC510B64B175418541754EF
:104100001854175418541754185417541854175453
:104110001854175418541754185417541854175443
:10412000185417541854123B831018C6FFFFBFFFD2
:10413000E42032431854385C1754385C1854385C07
:104140001754385C1854385C1754385C1854385C71
:104150001754385C1854385C1754385C1854385C61
:104160001754385CEB29EC62FFFF79CEC410D64BB4
:1041700018541754185417541854175418541754E3
:1041800018541754185417541854175418541754D3
:1041900018541754185417541854175418541754C3
:1041A00033430421FFFF38C6E510385C1754385CF0
:1041B0001854385C1754385C1854385C1754385C01
:1041C0001854385C1754385C1854385C1754385CF1
:1041D0001854385C1754385C1854385C7343C3184F
:1041E000FFFF17BEE51017541854175418541754EE
:1041F0001854175418541754185417541854175463
:104200001854175418541754185417541854175452
:1042100018541754185417547543C318FFFF38C661
:10422000E510385C1854385C1754385C1854385C06
:104230001754385C1854385C1754385C1854385C80
:104240001754385C1854385C1754385C1854385C70
:104250001754385C7443C318FFFF17BEE51017549A
:1042600018541754185417541854175418541754F2
:1042700018547A8D3CB637541854175418541754A0
:1042800018541754185417541854175418541754D2
:104290007543C318FFFF38C6E510385C1754385C07
:1042A0001854385C1754385C1854385C1754DBA524
:1042B000FFFF7B8D1754385C1854385C1754385CFA
:1042C0001854385C1754385C1854385C7443C3185D
:1042D000FFFF17BEE51017541854175418541754FD
:1042E00018541754185417541854575CDFF71DD737
:1042F0003854175418541754185417541854175442
:1043000018541754185417547543C318FFFF38C670
:10431000E510385C1854385C1754385C1854385C15
:104320001754385C1854385C1CAEFFFFDA74385CE4
:104330001754385C1854385C1754385C1854385C7F
:104340001754385C7443C318FFFF17BEE5101754A9
:104350001854175418541754185417541854175401
:10436000185417549964BFF79DC61754185417541E
:1043700018541754185417541854175418541754E1
:104380007543C318FFFF38C6E510385C1754385C16
:104390001854385C1754385C1854385C1754385C1F
:1043A0001854BDCEBFFFB96C1854385C1754385C34
:1043B0001854385C1754385C1854385C7443C3186C
:1043C000FFFF17BEE510175418541754185417540C
:1043D0001854175418541754185417541854F97C77
:1043E000FFFFDA9D185417541854175418541754D3
:1043F00018541754185417547543C318FFFF38C680
:10440000E510385C1854385C1754385C1854385C24
:104410001754385C1854385C1754385CFED6BFF714
:104420003754385C1854385C1754385C1854385C6E
:104430001754385C7443C318FFFF17BEE5101754B8
:104440001854175418541754185417541854175410
:1044500018541754185417547B95FFFF7B85175435
:1044600018541754185417541854175418541754F0
:104470007543C318FFFF38C6E510385C1754385C25
:104480001854385C1754385C1854385C1754385C2E
:104490001854385C37547FEFFEDE385C1754385CB4
:1044A0001854385C1754385C1854385C7443C3187B
:1044B000FFFF17BEE510175418541754185417541B
:1044C000185417541854585C1EDF3DDF5EE73DDF7B
:1044D0005EE7BEEFFFFF585C18541754185417548A
:1044E00018541754185417547543C318FFFF38C68F
:1044F000E510385C1854385C1754385C1854385C34
:10450000175478647DC6DDCEBDC6DDCEBDCEDDCE12
:10451000BDC658641854385C1754385C1854385C5D
:104520001754385C7443C318FFFF17BEE5101754C7
:10453000185417541854175418541754185417541F
:10454000185417541854175418541754185417540F
:1045500018541754185417541854175418541754FF
:104560007543C318FFFF38C6E510385C1754385C34
:104570001854385C1754385C1854385C1754385C3D
:104580001854385C1754385C1854385C1754385C2D
:104590001854385C1754385C1854385C7443C3188A
:1045A000FFFF17BEE510175418541754185417542A
:1045B000185417541854175418541754185417549F
:1045C000185417541854175418541754185417548F
:1045D00018541754185417547543C318FFFF38C69E
:1045E000C41018541854385C1754385C1854385C8C
:1045F0001754385C1854385C1754385C1854385CBD
:104600001754385C1854385C1754385C1854385CAC
:104610001754385C7343C318FFFFDAD6A310B54BA9
:10462000185417541854175418541754185417542E
:10463000185417541854175418541754185417541E
:10464000185417541854175418541754185417540E
:10465000D13A8631FFFFFFFFA7394E2A1754385C45
:104660001854385C1754385C1854385C1754385C4C
:104670001854385C1754385C1854385C1754385C3C
:104680001854385C1754385C185418542619108480
:10469000FFFFFFFFF8C5A310AF32F74B18541754B4
:1046A00018541754185417541854175418541754AE
:1046B000185417541854175418541754185417549E
:1046C00018541754D74BCA2145293CE7FFFFFFFF79
:1046D000FFFF96B5E4180511EA212D322C2A2D2A68
:1046E0002C2A2D322C2A2D2A2C2A2D322C2A2D2A06
:1046F0002C2A2D322C2A2D2A2C2A2D322C2AAA2182
:10470000A410C841BBDEFFFFFFFFFFFFFFFFFFFF5D
:104710005DEF14A5AE73AE73AF7BAE73AE73AE73C5
:10472000AF7BAE73AE73AE73AF7BAE73AE73AE736F
:10473000AF7BAE73AE73AE73AF7BEF7BD7BDBEF70F
:10474000FFFFFFFFFFFF0000424D3E07000000009B
:10475000000036000000280000001E0000001E00BF
:104760000000010010000300000008070000000026
:104770000000000000000000000000000000FFFF3B
:10478000FFFFFFFFFFFFFFFFFFFFFFFFFFFFFFFF39
:10479000FFFFFFFFFFFFFFFFFFFFFFFFFFFFFFFF29
:1047A000FFFFFFFFFFFFFFFFFFFFFFFFFFFFFFFF19
:1047B000FFFFFFFFFFFFFFFFFFFFFFFFFFFFDEF732
:1047C00035AD0842E318E418E418E418E418E418D6
:1047D000E418E418E418E418E418E418E418E418F9
:1047E000E418E418E418E418E418E318E739F39C33
:1047F000DFFFFFFFFFFFFFFFBFFF2D6B83086E3A58
:10480000524395437443954B744395437443954B7E
:10481000744395437443954B744395437443954B4C
:10482000744395437443744B8E32A410AB52BFFF54
:10483000FFFFFFFF5294C410B64B1754185417547F
:10484000185417541854175418541754185417540C
:1048500018541754185417541854175418541754FC
:10486000185417541854D54BE510AE73FFFFBFFF13
:10487000042112431854385C1754385C1854385CBF
:104880001754385C1854385C1754385C1854385C2A
:104890001754385C1854385C1754385C1854385C1A
:1048A0001754385C3243C3185EF779CEC410D64B28
:1048B000185417541854175418541754185417549C
:1048C000185417541854175418541754185417548C
:1048D000185417541854175418541754185417547C
:1048E000F74BA41039CE39CEC410385C1754385C5D
:1048F0001854385C1754385C1854385C1754385CBA
:104900001854385C1754385C1854385C1754385CA9
:104910001854385C1754385C1854385C1754E61037
:10492000D8C518C6C410175418541754185417541F
:10493000185417541854175418541754185417541B
:10494000185417541854175418541754185417540B
:1049500018541754185417541854E510F8C539CE84
:10496000C410385C1854385C1754385C1854385CE0
:104970001754385C1854385C1754385C1854385C39
:104980001754385C1854385C1754385C1854385C29
:104990001754385C1854E510D7BD18C6C410175406
:1049A00018541754185417541854175418541754AB
:1049B00038545A8DBDC6FDD6DDCE9A95585C175435
:1049C000185417541854175418541754185417548B
:1049D0001854E510F8C539CEC410385C1754385C4B
:1049E0001854385C1754385C1854385C5DB6FFFFB7
:1049F000FEDE7DBE9DBEFFFF1EDF78641754385C6F
:104A00001854385C1754385C1854385C1754E61046
:104A1000D8C518C6C410175418541754185417542E
:104A20001854175418543754FFFF9CBE1854175489
:104A300018545A8DFFFF5A8D185417541854175490
:104A400018541754185417541854E510F8C539CE93
:104A5000C410385C1854385C1754385C1854385CEF
:104A60001754585CFFFF5CB61754385C1854FA7C36
:104A7000FFFF1CAE1854385C1754385C1854385C6F
:104A80001754385C1854E510D7BD18C6C410175415
:104A900018541754185417541854175418541754BA
:104AA000FED69EEFFA7417547964BCC6FFFFF97402
:104AB000185417541854175418541754185417549A
:104AC0001854E510F8C539CEC410385C1754385C5A
:104AD0001854385C1754385C1854385C575CFECE58
:104AE000BFF79DC67FEFDFFF9B95385C1754385C9E
:104AF0001854385C1754385C1854385C1754E61056
:104B0000D8C518C6C410175418541754185417543D
:104B1000185417541854175418545A8DBFF7DFF708
:104B2000FFFFFBA538541754185417541854175442
:104B300018541754185417541854E510F8C539CEA2
:104B4000C410385C1854385C1754385C1854385CFE
:104B50001754385C1A7DFFFFFECED9749B95FFFF7A
:104B6000FCA5385C1854385C1754385C1854385C11
:104B70001754385C1854E510D7BD18C6C410175424
:104B800018541754185417541854175418541754C9
:104B90009DC69EEF595C175418549CBEDFF7575CB6
:104BA00018541754185417541854175418541754A9
:104BB0001854E510F8C539CEC410385C1754385C69
:104BC0001854385C1754385C1854385C9DBE9FF7F5
:104BD000595C385C17547DBEDFFF996C1754385C04
:104BE0001854385C1754385C1854385C1754E61065
:104BF000D8C518C6C410175418541754185417544D
:104C000018541754185417543A85DFF71EDFFBA5C4
:104C10009DBEDFF71ED71754185417541854175455
:104C200018541754185417541854E510F8C539CEB1
:104C3000C410385C1854385C1754385C1854385C0D
:104C40001754385C18543A85BDC65EE73EDF3CB663
:104C50007864385C1854385C1754385C1854385CE5
:104C60001754385C1854E510D7BD18C6C410175433
:104C700018541754185417541854175418541754D8
:104C800018541754185417541854175418541754C8
:104C900018541754185417541854175418541754B8
:104CA0001854E510F8C539CEC410385C1754385C78
:104CB0001854385C1754385C1854385C1754385CF6
:104CC0001854385C1754385C1854385C1754385CE6
:104CD0001854385C1754385C1854385C1754E61074
:104CE000D8C518C6C410175418541754185417545C
:104CF0001854175418541754185417541854175458
:104D00001854175418541754185417541854175447
:104D100018541754185417541854E510F8C539CEC0
:104D2000C41018541854385C1754385C1854385C44
:104D30001754385C1854385C1754385C1854385C75
:104D40001754385C1854385C1754385C1854385C65
:104D50001754385C1854C410D7BDDBDEA310954B34
:104D600018541754185417541854175418541754E7
:104D700018541754185417541854175418541754D7
:104D800018541754185417541854175418541754C7
:104D9000D64BA3109AD6FFFFC7392D2A1754385C7B
:104DA0001854385C1754385C1854385C1754385C05
:104DB0001854385C1754385C1854385C1754385CF5
:104DC0001854385C1754385C1854385C6E326631AD
:104DD000DFFFFFFF18C6A3108E32F64B185417548E
:104DE0001854175418541754185417541854175467
:104DF0001854175418541754185417541854175457
:104E000018541754F84BAF32831096B5FFFFFFFFCD
:104E1000FFFFB7BDE420E510CA212D322C2A2D2A30
:104E20002C2A2D322C2A2D2A2C2A2D322C2A2D2ABE
:104E30002C2A2D322C2A2D2A2C2A2D322C2ACB2119
:104E40000611C31834A5FFFFFFFFFFFFFFFFFFFFA1
:104E50007EF734A5CF7BAE73AF7BAE73AE73AE730C
:104E6000AF7BAE73AE73AE73AF7BAE73AE73AE7328
:104E7000AF7BAE73AE73AE73AF7BAE73F4A45CE77F
:104E8000FFFFFFFFFFFF0000424D3E070000000054
:104E9000000036000000280000001E0000001E0078
:104EA00000000100100003000000080700000000DF
:104EB0000000000000000000000000000000FFFFF4
:104EC000FFFFFFFFDFFF7AD6D7BDF8C5D8C5F8C50D
:104ED000D7BDF8C5D8C5F8C5D7BDF8C5D8C5F8C57C
:104EE000D7BDF8C5D8C5F8C5D7BDF8C5D8C5F8C56C
:104EF000DAD6FFFFFFFFFFFFFFFFFFFFFFFF75ADEC
:104F00004529A310E51006190619061906190619F0
:104F10000619061906190619061906190619061999
:104F200006190619061906190619C410A3102842F5
:104F3000DBDEFFFFFFFFFFFFF39C82108E32F75393
:104F40001854385C1754385C1854385C1754385C63
:104F50001854385C1754385C1854385C1754385C53
:104F60001854385C1754385C9443AB210421DBDEC1
:104F7000FFFF3CE7C318D03A18541754185417547D
:104F800018541754185417541854175418541754C5
:104F900018541754185417541854175418541754B5
:104FA0001854175418541754A921494AFFFFF4A460
:104FB000061138541854385C1754385C1854385C4F
:104FC0001754385C1854385C1754385C1854385CE3
:104FD0001754385C1854385C1754385C1854385CD3
:104FE0001754385C9443A310DCE68E73EA211754FF
:104FF0001854175418541754185417541854175455
:105000001854175418541754185417541854175444
:105010001854175418541754185417541854175434
:105020001854A41018C66E732C2A385C1754385CB8
:105030001854385C1754385C1854385C1754385C72
:105040001854385C1754385C1854385C1754385C62
:105050001854385C1754385C1854385C1754C41012
:10506000F8C54D6B2C2A175418541754185417545C
:1050700018541754185417541854175418541754D4
:1050800018541754185417541854175418541754C4
:1050900018541754185417541854C41018C66E7363
:1050A0002C2A385C1854385C1754385C1854385C17
:1050B0001754385C1854996CB86C78641854385C80
:1050C0001754385C1854385C1754385C1854385CE2
:1050D0001754385C1854C410F7BD4D6B2C2A175464
:1050E0001854175418541754185417541854575C1C
:1050F000FED6BEEFDFFF9EEF9DC69864185417548E
:105100001854175418541754185417541854175443
:105110001854C41018C66E732C2A385C1754385CA7
:105120001854385C1754385C185479641CAE9B953D
:10513000FA74BB9D9FF77FE73854385C1754385C8E
:105140001854385C1754385C1854385C1754C41021
:10515000F8C54D6B2C2A175418541754185417546B
:1051600018541754185417541854175418541754E3
:10517000B96CDFF73CB61754185417541854175429
:1051800018541754185417541854C41018C66E7372
:105190002C2A385C1854385C1754385C1854385C26
:1051A0001754385C1854385C1754385C1854DDCEEA
:1051B0005FE7585C1854385C1754385C1854385CF6
:1051C0001754385C1854C410F7BD4D6B2C2A175473
:1051D0001854175418541754185417541854175473
:1051E00038545A8D7DBE7CBEBB9D9CBEFFFF98642B
:1051F0001854175418541754185417541854175453
:105200001854C41018C66E732C2A385C1754385CB6
:105210001854385C1754385C1854385CBEC6FFFF0D
:105220001EDFBDC65FEFFFFFFFFFB9741754385C88
:105230001854385C1754385C1854385C1754C41030
:10524000F8C54D6B2C2A175418541754185417547A
:10525000185417541854F974FFFF7CBE185417548F
:1052600018545CB6FFFF986C185417541854175410
:1052700018541754185417541854C41018C66E7381
:105280002C2A385C1854385C1754385C1854385C35
:1052900017543A85FFFF3A851754385C18547CBE82
:1052A000DFFFB96C1854385C1754385C1854385CFC
:1052B0001754385C1854C410F7BD4D6B2C2A175482
:1052C0001854175418541754185417541854197D57
:1052D000FFFF9A95185417541854BCC6BFF7585C72
:1052E0001854175418541754185417541854175462
:1052F0001854C41018C66E732C2A385C1754385CC6
:105300001854385C1754385C1854996C9FF75EE752
:10531000595C385CF97CFFFF5DB6385C1754385C2B
:105320001854385C1754385C1854385C1754C4103F
:10533000F8C54D6B2C2A1754185417541854175489
:1053400018541754185417541A7D9EEFDFFF9EEF20
:10535000FFFF5EDF7964175418541754185417541C
:1053600018541754185417541854C41018C66E7390
:105370002C2A385C1854385C1754385C1854385C44
:105380001754385C1854996C9A95FBA57B8D7864FA
:105390001754385C1854385C1754385C1854385C0F
:1053A0001754385C1854C410F7BD4D6B2C2A175491
:1053B0001854175418541754185417541854175491
:1053C0001854175418541754185417541854175481
:1053D0001854175418541754185417541854175471
:1053E0001854C41018C66E732C2A385C1754385CD5
:1053F0001854385C1754385C1854385C1754385CAF
:105400001854385C1754385C1854385C1754385C9E
:105410001854385C1754385C1854385C1754C4104E
:10542000F8C54D6B2C2A1754185417541854175498
:105430001854175418541754185417541854175410
:105440001854175418541754185417541854175400
:1054500018541754185417541854C41018C6AF7B56
:10546000CA21385C1854385C1754385C1854385CBE
:105470001754385C1854385C1754385C1854385C2E
:105480001754385C1854385C1754385C1854385C1E
:105490001754385CF84BA41017BE14A5E510F64B52
:1054A00018541754185417541854175418541754A0
:1054B0001854175418541754185417541854175490
:1054C0001854175418541754185417541854175480
:1054D0007443A3101CE77EF704216F321754385C25
:1054E0001854385C1754385C1854385C1754385CBE
:1054F0001854385C1754385C1854385C1754385CAE
:105500001854385C1754385C185418546819CB5A1E
:10551000FFFFFFFFD7BDA3100C2A9443F74B17548E
:10552000185417541854175418541754185417541F
:10553000185417541854175418541754185417540F
:105540001854D64B5443471966311BDFFFFFFFFF4A
:10555000FFFF59CE0842C310C410E610E510E51055
:10556000E510E610E510E510E510E610E510E51091
:10557000E510E610E510E510E510E610E510C410A2
:10558000C3182D6B3DEFFFFFFFFFFFFFFFFFFFFF86
:10559000FFFF1BDF7AD659CE7AD659CE7AD659CEAE
:1055A0007AD659CE7AD659CE7AD659CE7AD659CE1F
:1055B0007AD659CE7AD659CE7AD679CE9EF7FFFFD3
:1055C000FFFFFFFFFFFF0000424D3E07000000000D
:1055D000000036000000280000001E0000001E0031
:1055E0000000010010000300000008070000000098
:1055F0000000000000000000000000000000FFFFAD
:10560000FFFFFFFFFFFFDBDED7BDF8C5D8C5F8C53C
:10561000D7BDF8C5D8C5F8C5D7BDF8C5D8C5F8C534
:10562000D7BDF8C5D8C5F8C5D7BDF8C5D8C518C603
:105630003DEFFFFFFFFFFFFFFFFFFFFFFFFFBAD6BA
:105640002842A310C41006190619061906190619CE
:105650000619061906190619061906190619061952
:1056600006190619061906190611C410A3108E731F
:105670009EF7FFFFFFFFFFFFDBDE0421CA21B64BD1
:105680001854385C1754385C1854385C1754385C1C
:105690001854385C1754385C1854385C1754385C0C
:1056A0001854385C17541854534306118A52DFFFBC
:1056B000FFFFFFFFAA52A921184C17541854175482
:1056C000185417541854175418541754185417547E
:1056D000185417541854175418541754185417546E
:1056E000185417541854D64BA410D39CFFFF3DEF09
:1056F000A310B54B1854385C1754385C1854385CF8
:105700001754385C1854385C1754385C1854385C9B
:105710001754385C1854385C1754385C1854385C8B
:105720001754385C8E320842FFFF38C6C410F64B5F
:10573000185417541854175418541754185417540D
:1057400018541754185417541854175418541754FD
:1057500018541754185417541854175418541754ED
:105760005443C318FFFF38C6E510385C1754385C43
:105770001854385C1754385C1854385C1754385C2B
:105780001854385C1754385C1854385C1754385C1B
:105790001854385C1754385C1854385C7443C31878
:1057A000FFFF17BEE5101754185417541854175418
:1057B000185417541854175418541754185417548D
:1057C000185417541854175418541754185417547D
:1057D00018541754185417547543C318FFFF38C68C
:1057E000E510385C1854385C1754385C1854385C31
:1057F000175479641854385C1754385C1854385C62
:10580000175479641854385C1754385C1854385C51
:105810001754385C7443C318FFFF17BEE5101754C4
:105820001854175418541754185417541A7D9EEFCF
:105830001A85175418541754185417541CAE7EE781
:10584000996417541854175418541754185417546B
:105850007543C318FFFF38C6E510385C1754385C31
:105860001854385C1754385C7964BFF77DBE385CD7
:105870001854385C1754385C5FEF5EE73754385C77
:105880001854385C1754385C1854385C7443C31887
:10589000FFFF17BEE5101754185417541854175427
:1058A0001854175418549CC6BFF7375C1854175433
:1058B0001854197DFFFFFBA518541754185417549A
:1058C00018541754185417547543C318FFFF38C69B
:1058D000E510385C1854385C1754385C1854385C40
:1058E00017543A85FFFFDFFFBFF7DFF7BFF7FFFF72
:1058F000DFFFD9741854385C1754385C1854385C7E
:105900001754385C7443C318FFFF17BEE5101754D3
:105910001854175418541754185417541854575CE3
:105920009FEF1DD79B9D7A95BB9DBFF73EDF175418
:10593000185417541854175418541754185417540B
:105940007543C318FFFF38C6E510385C1754385C40
:105950001854385C1754385C1854385C5DB6DFF75F
:105960001854385C197DFFFF9B95385C1754385CE0
:105970001854385C1754385C1854385C7443C31896
:10598000FFFF17BEE5101754185417541854175436
:105990001854175418541754FA7CFFFF3A8D1754B3
:1059A0007DBEDFF7595C1754185417541854175418
:1059B00018541754185417547543C318FFFF38C6AA
:1059C000E510385C1854385C1754385C1854385C4F
:1059D0001754385C38547FEF7DBE78647FEFFED675
:1059E0001754385C1854385C1754385C1854385CB9
:1059F0001754385C7443C318FFFF17BEE5101754E3
:105A0000185417541854175418541754185417543A
:105A10001854FBA5BFF75A8DFFFF7A8D1854175401
:105A2000185417541854175418541754185417541A
:105A30007543C318FFFF38C6E510385C1754385C4F
:105A40001854385C1754385C1854385C1754D9749F
:105A5000FFFF7FE79FF778641854385C1754385C71
:105A60001854385C1754385C1854385C7443C318A5
:105A7000FFFF17BEE5101754185417541854175445
:105A80001854175418541754185417545EE7FFFF4E
:105A90009DC61754185417541854175418541754B3
:105AA00018541754185417547543C318FFFF38C6B9
:105AB000E510385C1854385C1754385C1854385C5E
:105AC0001754385C1854385CD974BB9D7964385CC1
:105AD0001754385C1854385C1754385C1854385CC8
